{
  "contractName": "IPEntity",
  "abi": [
    {
      "inputs": [
        {
          "internalType": "string",
          "name": "name",
          "type": "string"
        },
        {
          "internalType": "string",
          "name": "symbol",
          "type": "string"
        },
        {
          "internalType": "bytes",
          "name": "identifier",
          "type": "bytes"
        }
      ],
      "stateMutability": "nonpayable",
      "type": "constructor"
    },
    {
      "anonymous": false,
      "inputs": [
        {
          "indexed": true,
          "internalType": "address",
          "name": "owner",
          "type": "address"
        },
        {
          "indexed": true,
          "internalType": "address",
          "name": "approved",
          "type": "address"
        },
        {
          "indexed": true,
          "internalType": "uint256",
          "name": "tokenId",
          "type": "uint256"
        }
      ],
      "name": "Approval",
      "type": "event"
    },
    {
      "anonymous": false,
      "inputs": [
        {
          "indexed": true,
          "internalType": "address",
          "name": "owner",
          "type": "address"
        },
        {
          "indexed": true,
          "internalType": "address",
          "name": "operator",
          "type": "address"
        },
        {
          "indexed": false,
          "internalType": "bool",
          "name": "approved",
          "type": "bool"
        }
      ],
      "name": "ApprovalForAll",
      "type": "event"
    },
    {
      "anonymous": false,
      "inputs": [
        {
          "indexed": true,
          "internalType": "address",
          "name": "from",
          "type": "address"
        },
        {
          "indexed": true,
          "internalType": "address",
          "name": "to",
          "type": "address"
        },
        {
          "indexed": true,
          "internalType": "uint256",
          "name": "tokenId",
          "type": "uint256"
        }
      ],
      "name": "Transfer",
      "type": "event"
    },
    {
      "inputs": [
        {
          "internalType": "address",
          "name": "to",
          "type": "address"
        },
        {
          "internalType": "uint256",
          "name": "tokenId",
          "type": "uint256"
        }
      ],
      "name": "approve",
      "outputs": [],
      "stateMutability": "nonpayable",
      "type": "function"
    },
    {
      "inputs": [
        {
          "internalType": "address",
          "name": "owner",
          "type": "address"
        }
      ],
      "name": "balanceOf",
      "outputs": [
        {
          "internalType": "uint256",
          "name": "",
          "type": "uint256"
        }
      ],
      "stateMutability": "view",
      "type": "function"
    },
    {
      "inputs": [],
      "name": "baseURI",
      "outputs": [
        {
          "internalType": "string",
          "name": "",
          "type": "string"
        }
      ],
      "stateMutability": "view",
      "type": "function"
    },
    {
      "inputs": [
        {
          "internalType": "uint256",
          "name": "tokenId",
          "type": "uint256"
        }
      ],
      "name": "getApproved",
      "outputs": [
        {
          "internalType": "address",
          "name": "",
          "type": "address"
        }
      ],
      "stateMutability": "view",
      "type": "function"
    },
    {
      "inputs": [
        {
          "internalType": "address",
          "name": "owner",
          "type": "address"
        },
        {
          "internalType": "address",
          "name": "operator",
          "type": "address"
        }
      ],
      "name": "isApprovedForAll",
      "outputs": [
        {
          "internalType": "bool",
          "name": "",
          "type": "bool"
        }
      ],
      "stateMutability": "view",
      "type": "function"
    },
    {
      "inputs": [],
      "name": "name",
      "outputs": [
        {
          "internalType": "string",
          "name": "",
          "type": "string"
        }
      ],
      "stateMutability": "view",
      "type": "function"
    },
    {
      "inputs": [
        {
          "internalType": "uint256",
          "name": "tokenId",
          "type": "uint256"
        }
      ],
      "name": "ownerOf",
      "outputs": [
        {
          "internalType": "address",
          "name": "",
          "type": "address"
        }
      ],
      "stateMutability": "view",
      "type": "function"
    },
    {
      "inputs": [
        {
          "internalType": "address",
          "name": "from",
          "type": "address"
        },
        {
          "internalType": "address",
          "name": "to",
          "type": "address"
        },
        {
          "internalType": "uint256",
          "name": "tokenId",
          "type": "uint256"
        }
      ],
      "name": "safeTransferFrom",
      "outputs": [],
      "stateMutability": "nonpayable",
      "type": "function"
    },
    {
      "inputs": [
        {
          "internalType": "address",
          "name": "from",
          "type": "address"
        },
        {
          "internalType": "address",
          "name": "to",
          "type": "address"
        },
        {
          "internalType": "uint256",
          "name": "tokenId",
          "type": "uint256"
        },
        {
          "internalType": "bytes",
          "name": "_data",
          "type": "bytes"
        }
      ],
      "name": "safeTransferFrom",
      "outputs": [],
      "stateMutability": "nonpayable",
      "type": "function"
    },
    {
      "inputs": [
        {
          "internalType": "address",
          "name": "operator",
          "type": "address"
        },
        {
          "internalType": "bool",
          "name": "approved",
          "type": "bool"
        }
      ],
      "name": "setApprovalForAll",
      "outputs": [],
      "stateMutability": "nonpayable",
      "type": "function"
    },
    {
      "inputs": [
        {
          "internalType": "bytes4",
          "name": "interfaceId",
          "type": "bytes4"
        }
      ],
      "name": "supportsInterface",
      "outputs": [
        {
          "internalType": "bool",
          "name": "",
          "type": "bool"
        }
      ],
      "stateMutability": "view",
      "type": "function"
    },
    {
      "inputs": [],
      "name": "symbol",
      "outputs": [
        {
          "internalType": "string",
          "name": "",
          "type": "string"
        }
      ],
      "stateMutability": "view",
      "type": "function"
    },
    {
      "inputs": [
        {
          "internalType": "uint256",
          "name": "index",
          "type": "uint256"
        }
      ],
      "name": "tokenByIndex",
      "outputs": [
        {
          "internalType": "uint256",
          "name": "",
          "type": "uint256"
        }
      ],
      "stateMutability": "view",
      "type": "function"
    },
    {
      "inputs": [
        {
          "internalType": "address",
          "name": "owner",
          "type": "address"
        },
        {
          "internalType": "uint256",
          "name": "index",
          "type": "uint256"
        }
      ],
      "name": "tokenOfOwnerByIndex",
      "outputs": [
        {
          "internalType": "uint256",
          "name": "",
          "type": "uint256"
        }
      ],
      "stateMutability": "view",
      "type": "function"
    },
    {
      "inputs": [
        {
          "internalType": "uint256",
          "name": "tokenId",
          "type": "uint256"
        }
      ],
      "name": "tokenURI",
      "outputs": [
        {
          "internalType": "string",
          "name": "",
          "type": "string"
        }
      ],
      "stateMutability": "view",
      "type": "function"
    },
    {
      "inputs": [],
      "name": "totalSupply",
      "outputs": [
        {
          "internalType": "uint256",
          "name": "",
          "type": "uint256"
        }
      ],
      "stateMutability": "view",
      "type": "function"
    },
    {
      "inputs": [
        {
          "internalType": "address",
          "name": "from",
          "type": "address"
        },
        {
          "internalType": "address",
          "name": "to",
          "type": "address"
        },
        {
          "internalType": "uint256",
          "name": "tokenId",
          "type": "uint256"
        }
      ],
      "name": "transferFrom",
      "outputs": [],
      "stateMutability": "nonpayable",
      "type": "function"
    },
    {
      "inputs": [
        {
          "internalType": "bytes",
          "name": "contractId",
          "type": "bytes"
        },
        {
          "internalType": "address[]",
          "name": "parties",
          "type": "address[]"
        }
      ],
      "name": "newMCOContract",
      "outputs": [],
      "stateMutability": "nonpayable",
      "type": "function"
    },
    {
      "inputs": [
        {
          "internalType": "bytes",
          "name": "contractId",
          "type": "bytes"
        },
        {
          "internalType": "address",
          "name": "party",
          "type": "address"
        },
        {
          "internalType": "string",
          "name": "tokenURI",
          "type": "string"
        }
      ],
      "name": "newPermission",
      "outputs": [
        {
          "internalType": "uint256",
          "name": "",
          "type": "uint256"
        }
      ],
      "stateMutability": "nonpayable",
      "type": "function"
    },
    {
      "inputs": [
        {
          "internalType": "bytes",
          "name": "contractId",
          "type": "bytes"
        },
        {
          "internalType": "address",
          "name": "party",
          "type": "address"
        },
        {
          "internalType": "string",
          "name": "tokenURI",
          "type": "string"
        }
      ],
      "name": "newObligation",
      "outputs": [
        {
          "internalType": "uint256",
          "name": "",
          "type": "uint256"
        }
      ],
      "stateMutability": "nonpayable",
      "type": "function"
    },
    {
      "inputs": [
        {
          "internalType": "bytes",
          "name": "contractId",
          "type": "bytes"
        },
        {
          "internalType": "address",
          "name": "party",
          "type": "address"
        },
        {
          "internalType": "string",
          "name": "tokenURI",
          "type": "string"
        }
      ],
      "name": "newProhibition",
      "outputs": [
        {
          "internalType": "uint256",
          "name": "",
          "type": "uint256"
        }
      ],
      "stateMutability": "nonpayable",
      "type": "function"
    }
  ],
  "bytecode": "0x60806040523480156200001157600080fd5b506040516200396738038062003967833981810160405260608110156200003757600080fd5b81019080805160405193929190846401000000008211156200005857600080fd5b838201915060208201858111156200006f57600080fd5b82518660018202830111640100000000821117156200008d57600080fd5b8083526020830192505050908051906020019080838360005b83811015620000c3578082015181840152602081019050620000a6565b50505050905090810190601f168015620000f15780820380516001836020036101000a031916815260200191505b50604052602001805160405193929190846401000000008211156200011557600080fd5b838201915060208201858111156200012c57600080fd5b82518660018202830111640100000000821117156200014a57600080fd5b8083526020830192505050908051906020019080838360005b838110156200018057808201518184015260208101905062000163565b50505050905090810190601f168015620001ae5780820380516001836020036101000a031916815260200191505b5060405260200180516040519392919084640100000000821115620001d257600080fd5b83820191506020820185811115620001e957600080fd5b82518660018202830111640100000000821117156200020757600080fd5b8083526020830192505050908051906020019080838360005b838110156200023d57808201518184015260208101905062000220565b50505050905090810190601f1680156200026b5780820380516001836020036101000a031916815260200191505b5060405250505082826200028c6301ffc9a760e01b6200032a60201b60201c565b8160069080519060200190620002a492919062000433565b508060079080519060200190620002bd92919062000433565b50620002d66380ac58cd60e01b6200032a60201b60201c565b620002ee635b5e139f60e01b6200032a60201b60201c565b6200030663780e9d6360e01b6200032a60201b60201c565b505080600d908051906020019062000320929190620004ba565b5050505062000569565b63ffffffff60e01b817bffffffffffffffffffffffffffffffffffffffffffffffffffffffff19161415620003c7576040517f08c379a000000000000000000000000000000000000000000000000000000000815260040180806020018281038252601c8152602001807f4552433136353a20696e76616c696420696e746572666163652069640000000081525060200191505060405180910390fd5b6001600080837bffffffffffffffffffffffffffffffffffffffffffffffffffffffff19167bffffffffffffffffffffffffffffffffffffffffffffffffffffffff1916815260200190815260200160002060006101000a81548160ff02191690831515021790555050565b828054600181600116156101000203166002900490600052602060002090601f016020900481019282601f106200047657805160ff1916838001178555620004a7565b82800160010185558215620004a7579182015b82811115620004a657825182559160200191906001019062000489565b5b509050620004b6919062000541565b5090565b828054600181600116156101000203166002900490600052602060002090601f016020900481019282601f10620004fd57805160ff19168380011785556200052e565b828001600101855582156200052e579182015b828111156200052d57825182559160200191906001019062000510565b5b5090506200053d919062000541565b5090565b6200056691905b808211156200056257600081600090555060010162000548565b5090565b90565b6133ee80620005796000396000f3fe608060405234801561001057600080fd5b50600436106101375760003560e01c806355b1bd34116100b857806395d89b411161007c57806395d89b4114610a22578063a22cb46514610aa5578063b88d4fde14610af5578063c87b56dd14610bfa578063caf787f714610ca1578063e985e9c514610e2757610137565b806355b1bd34146106045780635ec3a9da1461078a5780636352211e146108d95780636c0360eb1461094757806370a08231146109ca57610137565b806323b872dd116100ff57806323b872dd146102fe5780632f745c591461036c57806342842e0e146103ce578063443b60a81461043c5780634f6ccce7146105c257610137565b806301ffc9a71461013c57806306fdde03146101a1578063081812fc14610224578063095ea7b31461029257806318160ddd146102e0575b600080fd5b6101876004803603602081101561015257600080fd5b8101908080357bffffffffffffffffffffffffffffffffffffffffffffffffffffffff19169060200190929190505050610ea3565b604051808215151515815260200191505060405180910390f35b6101a9610f0a565b6040518080602001828103825283818151815260200191508051906020019080838360005b838110156101e95780820151818401526020810190506101ce565b50505050905090810190601f1680156102165780820380516001836020036101000a031916815260200191505b509250505060405180910390f35b6102506004803603602081101561023a57600080fd5b8101908080359060200190929190505050610fac565b604051808273ffffffffffffffffffffffffffffffffffffffff1673ffffffffffffffffffffffffffffffffffffffff16815260200191505060405180910390f35b6102de600480360360408110156102a857600080fd5b81019080803573ffffffffffffffffffffffffffffffffffffffff16906020019092919080359060200190929190505050611047565b005b6102e861118b565b6040518082815260200191505060405180910390f35b61036a6004803603606081101561031457600080fd5b81019080803573ffffffffffffffffffffffffffffffffffffffff169060200190929190803573ffffffffffffffffffffffffffffffffffffffff1690602001909291908035906020019092919050505061119c565b005b6103b86004803603604081101561038257600080fd5b81019080803573ffffffffffffffffffffffffffffffffffffffff16906020019092919080359060200190929190505050611212565b6040518082815260200191505060405180910390f35b61043a600480360360608110156103e457600080fd5b81019080803573ffffffffffffffffffffffffffffffffffffffff169060200190929190803573ffffffffffffffffffffffffffffffffffffffff1690602001909291908035906020019092919050505061126d565b005b6105ac6004803603606081101561045257600080fd5b810190808035906020019064010000000081111561046f57600080fd5b82018360208201111561048157600080fd5b803590602001918460018302840111640100000000831117156104a357600080fd5b91908080601f016020809104026020016040519081016040528093929190818152602001838380828437600081840152601f19601f820116905080830192505050505050509192919290803573ffffffffffffffffffffffffffffffffffffffff1690602001909291908035906020019064010000000081111561052657600080fd5b82018360208201111561053857600080fd5b8035906020019184600183028401116401000000008311171561055a57600080fd5b91908080601f016020809104026020016040519081016040528093929190818152602001838380828437600081840152601f19601f82011690508083019250505050505050919291929050505061128d565b6040518082815260200191505060405180910390f35b6105ee600480360360208110156105d857600080fd5b81019080803590602001909291905050506112dd565b6040518082815260200191505060405180910390f35b6107746004803603606081101561061a57600080fd5b810190808035906020019064010000000081111561063757600080fd5b82018360208201111561064957600080fd5b8035906020019184600183028401116401000000008311171561066b57600080fd5b91908080601f016020809104026020016040519081016040528093929190818152602001838380828437600081840152601f19601f820116905080830192505050505050509192919290803573ffffffffffffffffffffffffffffffffffffffff169060200190929190803590602001906401000000008111156106ee57600080fd5b82018360208201111561070057600080fd5b8035906020019184600183028401116401000000008311171561072257600080fd5b91908080601f016020809104026020016040519081016040528093929190818152602001838380828437600081840152601f19601f820116905080830192505050505050509192919290505050611300565b6040518082815260200191505060405180910390f35b6108d7600480360360408110156107a057600080fd5b81019080803590602001906401000000008111156107bd57600080fd5b8201836020820111156107cf57600080fd5b803590602001918460018302840111640100000000831117156107f157600080fd5b91908080601f016020809104026020016040519081016040528093929190818152602001838380828437600081840152601f19601f8201169050808301925050505050505091929192908035906020019064010000000081111561085457600080fd5b82018360208201111561086657600080fd5b8035906020019184602083028401116401000000008311171561088857600080fd5b919080806020026020016040519081016040528093929190818152602001838360200280828437600081840152601f19601f820116905080830192505050505050509192919290505050611350565b005b610905600480360360208110156108ef57600080fd5b810190808035906020019092919050505061148a565b604051808273ffffffffffffffffffffffffffffffffffffffff1673ffffffffffffffffffffffffffffffffffffffff16815260200191505060405180910390f35b61094f6114c1565b6040518080602001828103825283818151815260200191508051906020019080838360005b8381101561098f578082015181840152602081019050610974565b50505050905090810190601f1680156109bc5780820380516001836020036101000a031916815260200191505b509250505060405180910390f35b610a0c600480360360208110156109e057600080fd5b81019080803573ffffffffffffffffffffffffffffffffffffffff169060200190929190505050611563565b6040518082815260200191505060405180910390f35b610a2a611638565b6040518080602001828103825283818151815260200191508051906020019080838360005b83811015610a6a578082015181840152602081019050610a4f565b50505050905090810190601f168015610a975780820380516001836020036101000a031916815260200191505b509250505060405180910390f35b610af360048036036040811015610abb57600080fd5b81019080803573ffffffffffffffffffffffffffffffffffffffff1690602001909291908035151590602001909291905050506116da565b005b610bf860048036036080811015610b0b57600080fd5b81019080803573ffffffffffffffffffffffffffffffffffffffff169060200190929190803573ffffffffffffffffffffffffffffffffffffffff1690602001909291908035906020019092919080359060200190640100000000811115610b7257600080fd5b820183602082011115610b8457600080fd5b80359060200191846001830284011164010000000083111715610ba657600080fd5b91908080601f016020809104026020016040519081016040528093929190818152602001838380828437600081840152601f19601f820116905080830192505050505050509192919290505050611892565b005b610c2660048036036020811015610c1057600080fd5b810190808035906020019092919050505061190a565b6040518080602001828103825283818151815260200191508051906020019080838360005b83811015610c66578082015181840152602081019050610c4b565b50505050905090810190601f168015610c935780820380516001836020036101000a031916815260200191505b509250505060405180910390f35b610e1160048036036060811015610cb757600080fd5b8101908080359060200190640100000000811115610cd457600080fd5b820183602082011115610ce657600080fd5b80359060200191846001830284011164010000000083111715610d0857600080fd5b91908080601f016020809104026020016040519081016040528093929190818152602001838380828437600081840152601f19601f820116905080830192505050505050509192919290803573ffffffffffffffffffffffffffffffffffffffff16906020019092919080359060200190640100000000811115610d8b57600080fd5b820183602082011115610d9d57600080fd5b80359060200191846001830284011164010000000083111715610dbf57600080fd5b91908080601f016020809104026020016040519081016040528093929190818152602001838380828437600081840152601f19601f820116905080830192505050505050509192919290505050611bf3565b6040518082815260200191505060405180910390f35b610e8960048036036040811015610e3d57600080fd5b81019080803573ffffffffffffffffffffffffffffffffffffffff169060200190929190803573ffffffffffffffffffffffffffffffffffffffff169060200190929190505050611c43565b604051808215151515815260200191505060405180910390f35b6000806000837bffffffffffffffffffffffffffffffffffffffffffffffffffffffff19167bffffffffffffffffffffffffffffffffffffffffffffffffffffffff1916815260200190815260200160002060009054906101000a900460ff169050919050565b606060068054600181600116156101000203166002900480601f016020809104026020016040519081016040528092919081815260200182805460018160011615610100020316600290048015610fa25780601f10610f7757610100808354040283529160200191610fa2565b820191906000526020600020905b815481529060010190602001808311610f8557829003601f168201915b5050505050905090565b6000610fb782611cd7565b61100c576040517f08c379a000000000000000000000000000000000000000000000000000000000815260040180806020018281038252602c8152602001806132b7602c913960400191505060405180910390fd5b6004600083815260200190815260200160002060009054906101000a900473ffffffffffffffffffffffffffffffffffffffff169050919050565b60006110528261148a565b90508073ffffffffffffffffffffffffffffffffffffffff168373ffffffffffffffffffffffffffffffffffffffff1614156110d9576040517f08c379a00000000000000000000000000000000000000000000000000000000081526004018080602001828103825260218152602001806133676021913960400191505060405180910390fd5b8073ffffffffffffffffffffffffffffffffffffffff166110f8611cf4565b73ffffffffffffffffffffffffffffffffffffffff161480611127575061112681611121611cf4565b611c43565b5b61117c576040517f08c379a000000000000000000000000000000000000000000000000000000000815260040180806020018281038252603881526020018061320a6038913960400191505060405180910390fd5b6111868383611cfc565b505050565b60006111976002611db5565b905090565b6111ad6111a7611cf4565b82611dca565b611202576040517f08c379a00000000000000000000000000000000000000000000000000000000081526004018080602001828103825260318152602001806133886031913960400191505060405180910390fd5b61120d838383611ebe565b505050565b600061126582600160008673ffffffffffffffffffffffffffffffffffffffff1673ffffffffffffffffffffffffffffffffffffffff16815260200190815260200160002061210190919063ffffffff16565b905092915050565b61128883838360405180602001604052806000815250611892565b505050565b60008061129b85858561211b565b90506002600b600083815260200190815260200160002060006101000a81548160ff021916908360028111156112cd57fe5b0217905550809150509392505050565b6000806112f48360026121d990919063ffffffff16565b50905080915050919050565b60008061130e85858561211b565b90506001600b600083815260200190815260200160002060006101000a81548160ff0219169083600281111561134057fe5b0217905550809150509392505050565b6000600c836040518082805190602001908083835b602083106113885780518252602082019150602081019050602083039250611365565b6001836020036101000a0380198251168184511680821785525050505050509050019150509081526020016040518091039020905060006113cb82600001612208565b1461143e576040517f08c379a00000000000000000000000000000000000000000000000000000000081526004018080602001828103825260118152602001807f4578697374696e6720636f6e747261637400000000000000000000000000000081525060200191505060405180910390fd5b60008090505b82518110156114845761147683828151811061145c57fe5b60200260200101518360000161221d90919063ffffffff16565b508080600101915050611444565b50505050565b60006114ba8260405180606001604052806029815260200161326c60299139600261224d9092919063ffffffff16565b9050919050565b606060098054600181600116156101000203166002900480601f0160208091040260200160405190810160405280929190818152602001828054600181600116156101000203166002900480156115595780601f1061152e57610100808354040283529160200191611559565b820191906000526020600020905b81548152906001019060200180831161153c57829003601f168201915b5050505050905090565b60008073ffffffffffffffffffffffffffffffffffffffff168273ffffffffffffffffffffffffffffffffffffffff1614156115ea576040517f08c379a000000000000000000000000000000000000000000000000000000000815260040180806020018281038252602a815260200180613242602a913960400191505060405180910390fd5b611631600160008473ffffffffffffffffffffffffffffffffffffffff1673ffffffffffffffffffffffffffffffffffffffff16815260200190815260200160002061226c565b9050919050565b606060078054600181600116156101000203166002900480601f0160208091040260200160405190810160405280929190818152602001828054600181600116156101000203166002900480156116d05780601f106116a5576101008083540402835291602001916116d0565b820191906000526020600020905b8154815290600101906020018083116116b357829003601f168201915b5050505050905090565b6116e2611cf4565b73ffffffffffffffffffffffffffffffffffffffff168273ffffffffffffffffffffffffffffffffffffffff161415611783576040517f08c379a00000000000000000000000000000000000000000000000000000000081526004018080602001828103825260198152602001807f4552433732313a20617070726f766520746f2063616c6c65720000000000000081525060200191505060405180910390fd5b8060056000611790611cf4565b73ffffffffffffffffffffffffffffffffffffffff1673ffffffffffffffffffffffffffffffffffffffff16815260200190815260200160002060008473ffffffffffffffffffffffffffffffffffffffff1673ffffffffffffffffffffffffffffffffffffffff16815260200190815260200160002060006101000a81548160ff0219169083151502179055508173ffffffffffffffffffffffffffffffffffffffff1661183d611cf4565b73ffffffffffffffffffffffffffffffffffffffff167f17307eab39ab6107e8899845ad3d59bd9653f200f220920489ca2b5937696c3183604051808215151515815260200191505060405180910390a35050565b6118a361189d611cf4565b83611dca565b6118f8576040517f08c379a00000000000000000000000000000000000000000000000000000000081526004018080602001828103825260318152602001806133886031913960400191505060405180910390fd5b61190484848484612281565b50505050565b606061191582611cd7565b61196a576040517f08c379a000000000000000000000000000000000000000000000000000000000815260040180806020018281038252602f815260200180613338602f913960400191505060405180910390fd5b6060600860008481526020019081526020016000208054600181600116156101000203166002900480601f016020809104026020016040519081016040528092919081815260200182805460018160011615610100020316600290048015611a135780601f106119e857610100808354040283529160200191611a13565b820191906000526020600020905b8154815290600101906020018083116119f657829003601f168201915b50505050509050600060098054600181600116156101000203166002900490501415611a425780915050611bee565b600081511115611b1b576009816040516020018083805460018160011615610100020316600290048015611aad5780601f10611a8b576101008083540402835291820191611aad565b820191906000526020600020905b815481529060010190602001808311611a99575b505082805190602001908083835b60208310611ade5780518252602082019150602081019050602083039250611abb565b6001836020036101000a03801982511681845116808217855250505050505090500192505050604051602081830303815290604052915050611bee565b6009611b26846122f3565b6040516020018083805460018160011615610100020316600290048015611b845780601f10611b62576101008083540402835291820191611b84565b820191906000526020600020905b815481529060010190602001808311611b70575b505082805190602001908083835b60208310611bb55780518252602082019150602081019050602083039250611b92565b6001836020036101000a038019825116818451168082178552505050505050905001925050506040516020818303038152906040529150505b919050565b600080611c0185858561211b565b90506000600b600083815260200190815260200160002060006101000a81548160ff02191690836002811115611c3357fe5b0217905550809150509392505050565b6000600560008473ffffffffffffffffffffffffffffffffffffffff1673ffffffffffffffffffffffffffffffffffffffff16815260200190815260200160002060008373ffffffffffffffffffffffffffffffffffffffff1673ffffffffffffffffffffffffffffffffffffffff16815260200190815260200160002060009054906101000a900460ff16905092915050565b6000611ced82600261243a90919063ffffffff16565b9050919050565b600033905090565b816004600083815260200190815260200160002060006101000a81548173ffffffffffffffffffffffffffffffffffffffff021916908373ffffffffffffffffffffffffffffffffffffffff160217905550808273ffffffffffffffffffffffffffffffffffffffff16611d6f8361148a565b73ffffffffffffffffffffffffffffffffffffffff167f8c5be1e5ebec7d5bd14f71427d1e84f3dd0314c0f7b2291e5b200ac8c7c3b92560405160405180910390a45050565b6000611dc382600001612454565b9050919050565b6000611dd582611cd7565b611e2a576040517f08c379a000000000000000000000000000000000000000000000000000000000815260040180806020018281038252602c8152602001806131de602c913960400191505060405180910390fd5b6000611e358361148a565b90508073ffffffffffffffffffffffffffffffffffffffff168473ffffffffffffffffffffffffffffffffffffffff161480611ea457508373ffffffffffffffffffffffffffffffffffffffff16611e8c84610fac565b73ffffffffffffffffffffffffffffffffffffffff16145b80611eb55750611eb48185611c43565b5b91505092915050565b8273ffffffffffffffffffffffffffffffffffffffff16611ede8261148a565b73ffffffffffffffffffffffffffffffffffffffff1614611f4a576040517f08c379a000000000000000000000000000000000000000000000000000000000815260040180806020018281038252602981526020018061330f6029913960400191505060405180910390fd5b600073ffffffffffffffffffffffffffffffffffffffff168273ffffffffffffffffffffffffffffffffffffffff161415611fd0576040517f08c379a00000000000000000000000000000000000000000000000000000000081526004018080602001828103825260248152602001806131ba6024913960400191505060405180910390fd5b611fdb838383612465565b611fe6600082611cfc565b61203781600160008673ffffffffffffffffffffffffffffffffffffffff1673ffffffffffffffffffffffffffffffffffffffff16815260200190815260200160002061246a90919063ffffffff16565b5061208981600160008573ffffffffffffffffffffffffffffffffffffffff1673ffffffffffffffffffffffffffffffffffffffff16815260200190815260200160002061248490919063ffffffff16565b506120a08183600261249e9092919063ffffffff16565b50808273ffffffffffffffffffffffffffffffffffffffff168473ffffffffffffffffffffffffffffffffffffffff167fddf252ad1be2c89b69c2b068fc378daa952ba7f163c4a11628f55a4df523b3ef60405160405180910390a4505050565b600061211083600001836124d3565b60001c905092915050565b6000612127600a612556565b6000612133600a61256c565b905061213f848261257a565b612149818461276e565b6000600c866040518082805190602001908083835b60208310612181578051825260208201915060208101905060208303925061215e565b6001836020036101000a038019825116818451168082178552505050505050905001915050908152602001604051809103902090506121cc828260020161248490919063ffffffff16565b5081925050509392505050565b6000806000806121ec86600001866127f8565b915091508160001c8160001c8090509350935050509250929050565b600061221682600001612891565b9050919050565b6000612245836000018373ffffffffffffffffffffffffffffffffffffffff1660001b6128a2565b905092915050565b6000612260846000018460001b84612912565b60001c90509392505050565b600061227a82600001612891565b9050919050565b61228c848484611ebe565b61229884848484612a08565b6122ed576040517f08c379a00000000000000000000000000000000000000000000000000000000081526004018080602001828103825260328152602001806131886032913960400191505060405180910390fd5b50505050565b6060600082141561233b576040518060400160405280600181526020017f30000000000000000000000000000000000000000000000000000000000000008152509050612435565b600082905060005b60008214612365578080600101915050600a828161235d57fe5b049150612343565b60608167ffffffffffffffff8111801561237e57600080fd5b506040519080825280601f01601f1916602001820160405280156123b15781602001600182028036833780820191505090505b50905060006001830390508593505b6000841461242d57600a84816123d257fe5b0660300160f81b828280600190039350815181106123ec57fe5b60200101907effffffffffffffffffffffffffffffffffffffffffffffffffffffffffffff1916908160001a905350600a848161242557fe5b0493506123c0565b819450505050505b919050565b600061244c836000018360001b612c4d565b905092915050565b600081600001805490509050919050565b505050565b600061247c836000018360001b612c70565b905092915050565b6000612496836000018360001b6128a2565b905092915050565b60006124ca846000018460001b8473ffffffffffffffffffffffffffffffffffffffff1660001b612d58565b90509392505050565b600081836000018054905011612534576040517f08c379a00000000000000000000000000000000000000000000000000000000081526004018080602001828103825260228152602001806131666022913960400191505060405180910390fd5b82600001828154811061254357fe5b9060005260206000200154905092915050565b6001816000016000828254019250508190555050565b600081600001549050919050565b600073ffffffffffffffffffffffffffffffffffffffff168273ffffffffffffffffffffffffffffffffffffffff16141561261d576040517f08c379a00000000000000000000000000000000000000000000000000000000081526004018080602001828103825260208152602001807f4552433732313a206d696e7420746f20746865207a65726f206164647265737381525060200191505060405180910390fd5b61262681611cd7565b15612699576040517f08c379a000000000000000000000000000000000000000000000000000000000815260040180806020018281038252601c8152602001807f4552433732313a20746f6b656e20616c7265616479206d696e7465640000000081525060200191505060405180910390fd5b6126a560008383612465565b6126f681600160008573ffffffffffffffffffffffffffffffffffffffff1673ffffffffffffffffffffffffffffffffffffffff16815260200190815260200160002061248490919063ffffffff16565b5061270d8183600261249e9092919063ffffffff16565b50808273ffffffffffffffffffffffffffffffffffffffff16600073ffffffffffffffffffffffffffffffffffffffff167fddf252ad1be2c89b69c2b068fc378daa952ba7f163c4a11628f55a4df523b3ef60405160405180910390a45050565b61277782611cd7565b6127cc576040517f08c379a000000000000000000000000000000000000000000000000000000000815260040180806020018281038252602c8152602001806132e3602c913960400191505060405180910390fd5b806008600084815260200190815260200160002090805190602001906127f39291906130c0565b505050565b6000808284600001805490501161285a576040517f08c379a00000000000000000000000000000000000000000000000000000000081526004018080602001828103825260228152602001806132956022913960400191505060405180910390fd5b600084600001848154811061286b57fe5b906000526020600020906002020190508060000154816001015492509250509250929050565b600081600001805490509050919050565b60006128ae8383612e34565b61290757826000018290806001815401808255809150506001900390600052602060002001600090919091909150558260000180549050836001016000848152602001908152602001600020819055506001905061290c565b600090505b92915050565b600080846001016000858152602001908152602001600020549050600081141583906129d9576040517f08c379a00000000000000000000000000000000000000000000000000000000081526004018080602001828103825283818151815260200191508051906020019080838360005b8381101561299e578082015181840152602081019050612983565b50505050905090810190601f1680156129cb5780820380516001836020036101000a031916815260200191505b509250505060405180910390fd5b508460000160018203815481106129ec57fe5b9060005260206000209060020201600101549150509392505050565b6000612a298473ffffffffffffffffffffffffffffffffffffffff16612e57565b612a365760019050612c45565b6060612bcc63150b7a0260e01b612a4b611cf4565b888787604051602401808573ffffffffffffffffffffffffffffffffffffffff1673ffffffffffffffffffffffffffffffffffffffff1681526020018473ffffffffffffffffffffffffffffffffffffffff1673ffffffffffffffffffffffffffffffffffffffff16815260200183815260200180602001828103825283818151815260200191508051906020019080838360005b83811015612afb578082015181840152602081019050612ae0565b50505050905090810190601f168015612b285780820380516001836020036101000a031916815260200191505b5095505050505050604051602081830303815290604052907bffffffffffffffffffffffffffffffffffffffffffffffffffffffff19166020820180517bffffffffffffffffffffffffffffffffffffffffffffffffffffffff8381831617835250505050604051806060016040528060328152602001613188603291398773ffffffffffffffffffffffffffffffffffffffff16612ea29092919063ffffffff16565b90506000818060200190516020811015612be557600080fd5b8101908080519060200190929190505050905063150b7a0260e01b7bffffffffffffffffffffffffffffffffffffffffffffffffffffffff1916817bffffffffffffffffffffffffffffffffffffffffffffffffffffffff191614925050505b949350505050565b600080836001016000848152602001908152602001600020541415905092915050565b60008083600101600084815260200190815260200160002054905060008114612d4c5760006001820390506000600186600001805490500390506000866000018281548110612cbb57fe5b9060005260206000200154905080876000018481548110612cd857fe5b9060005260206000200181905550600183018760010160008381526020019081526020016000208190555086600001805480612d1057fe5b60019003818190600052602060002001600090559055866001016000878152602001908152602001600020600090556001945050505050612d52565b60009150505b92915050565b6000808460010160008581526020019081526020016000205490506000811415612dff57846000016040518060400160405280868152602001858152509080600181540180825580915050600190039060005260206000209060020201600090919091909150600082015181600001556020820151816001015550508460000180549050856001016000868152602001908152602001600020819055506001915050612e2d565b82856000016001830381548110612e1257fe5b90600052602060002090600202016001018190555060009150505b9392505050565b600080836001016000848152602001908152602001600020541415905092915050565b60008060007fc5d2460186f7233c927e7db2dcc703c0e500b653ca82273b7bfad8045d85a47060001b9050833f9150808214158015612e9957506000801b8214155b92505050919050565b6060612eb18484600085612eba565b90509392505050565b6060612ec585612e57565b612f37576040517f08c379a000000000000000000000000000000000000000000000000000000000815260040180806020018281038252601d8152602001807f416464726573733a2063616c6c20746f206e6f6e2d636f6e747261637400000081525060200191505060405180910390fd5b600060608673ffffffffffffffffffffffffffffffffffffffff1685876040518082805190602001908083835b60208310612f875780518252602082019150602081019050602083039250612f64565b6001836020036101000a03801982511681845116808217855250505050505090500191505060006040518083038185875af1925050503d8060008114612fe9576040519150601f19603f3d011682016040523d82523d6000602084013e612fee565b606091505b509150915081156130035780925050506130b8565b6000815111156130165780518082602001fd5b836040517f08c379a00000000000000000000000000000000000000000000000000000000081526004018080602001828103825283818151815260200191508051906020019080838360005b8381101561307d578082015181840152602081019050613062565b50505050905090810190601f1680156130aa5780820380516001836020036101000a031916815260200191505b509250505060405180910390fd5b949350505050565b828054600181600116156101000203166002900490600052602060002090601f016020900481019282601f1061310157805160ff191683800117855561312f565b8280016001018555821561312f579182015b8281111561312e578251825591602001919060010190613113565b5b50905061313c9190613140565b5090565b61316291905b8082111561315e576000816000905550600101613146565b5090565b9056fe456e756d657261626c655365743a20696e646578206f7574206f6620626f756e64734552433732313a207472616e7366657220746f206e6f6e20455243373231526563656976657220696d706c656d656e7465724552433732313a207472616e7366657220746f20746865207a65726f20616464726573734552433732313a206f70657261746f7220717565727920666f72206e6f6e6578697374656e7420746f6b656e4552433732313a20617070726f76652063616c6c6572206973206e6f74206f776e6572206e6f7220617070726f76656420666f7220616c6c4552433732313a2062616c616e636520717565727920666f7220746865207a65726f20616464726573734552433732313a206f776e657220717565727920666f72206e6f6e6578697374656e7420746f6b656e456e756d657261626c654d61703a20696e646578206f7574206f6620626f756e64734552433732313a20617070726f76656420717565727920666f72206e6f6e6578697374656e7420746f6b656e4552433732314d657461646174613a2055524920736574206f66206e6f6e6578697374656e7420746f6b656e4552433732313a207472616e73666572206f6620746f6b656e2074686174206973206e6f74206f776e4552433732314d657461646174613a2055524920717565727920666f72206e6f6e6578697374656e7420746f6b656e4552433732313a20617070726f76616c20746f2063757272656e74206f776e65724552433732313a207472616e736665722063616c6c6572206973206e6f74206f776e6572206e6f7220617070726f766564a26469706673582212209a741f879f122d507ccb610fe80679f10a5451785d7557dd28d2181f349aeb5564736f6c634300060b0033",
  "immutableReferences": {},
  "source": "// SPDX-License-Identifier: MIT\npragma solidity ^0.6.0;\n\n//import \"./ERC1948/ERC1948.sol\";\nimport \"@openzeppelin/contracts/token/ERC721/ERC721.sol\";\nimport \"@openzeppelin/contracts/utils/Counters.sol\";\nimport \"@openzeppelin/contracts/utils/EnumerableSet.sol\";\n\ncontract IPEntity is ERC721 {\n    using Counters for Counters.Counter;\n    using EnumerableSet for EnumerableSet.AddressSet;\n    using EnumerableSet for EnumerableSet.UintSet;\n\n    Counters.Counter private _tokenIds;\n\n    // Enum representing token type\n    enum DeonticExpression {Permission, Obligation, Prohibition}\n\n    // Mapping for token DeonticExpressions\n    mapping(uint256 => DeonticExpression) private _tokenDeonticExpressions;\n\n    // MCO contract structure\n    struct MCOContract {\n        EnumerableSet.AddressSet parties;\n        EnumerableSet.UintSet deonticExpressions;\n    }\n\n    mapping(bytes => MCOContract) _contracts;\n\n    // IP Entity unique identifier\n    bytes private _identifier;\n\n    constructor(\n        string memory name,\n        string memory symbol,\n        bytes memory identifier\n    ) public ERC721(name, symbol) {\n        _identifier = identifier;\n    }\n\n    function newMCOContract(bytes memory contractId, address[] memory parties)\n        public\n    {\n        MCOContract storage cinfo = _contracts[contractId];\n        require(cinfo.parties.length() == 0, \"Existing contract\");\n\n        for (uint256 i = 0; i < parties.length; i++) {\n            cinfo.parties.add(parties[i]);\n        }\n    }\n\n    function newPermission(\n        bytes memory contractId,\n        address party,\n        string memory tokenURI\n    ) public returns (uint256) {\n        uint256 newItemId = _newToken(contractId, party, tokenURI);\n\n        _tokenDeonticExpressions[newItemId] = DeonticExpression.Permission;\n\n        return newItemId;\n    }\n\n    function newObligation(\n        bytes memory contractId,\n        address party,\n        string memory tokenURI\n    ) public returns (uint256) {\n        uint256 newItemId = _newToken(contractId, party, tokenURI);\n\n        _tokenDeonticExpressions[newItemId] = DeonticExpression.Obligation;\n\n        return newItemId;\n    }\n\n    function newProhibition(\n        bytes memory contractId,\n        address party,\n        string memory tokenURI\n    ) public returns (uint256) {\n        uint256 newItemId = _newToken(contractId, party, tokenURI);\n\n        _tokenDeonticExpressions[newItemId] = DeonticExpression.Prohibition;\n\n        return newItemId;\n    }\n\n    function _newToken(\n        bytes memory contractId,\n        address party,\n        string memory tokenURI\n    ) private returns (uint256) {\n        _tokenIds.increment();\n\n        uint256 newItemId = _tokenIds.current();\n        _mint(party, newItemId);\n        _setTokenURI(newItemId, tokenURI);\n\n        MCOContract storage cinfo = _contracts[contractId];\n        cinfo.deonticExpressions.add(newItemId);\n\n        return newItemId;\n    }\n}\n",
  "sourcePath": "/home/miker/workspace/mpeg/mpeg21mco2sc/solidity/contracts/IPEntity.sol",
  "compiler": {
    "name": "solc",
    "version": "0.6.11+commit.5ef660b1.Emscripten.clang"
  },
  "schemaVersion": "3.2.2",
  "updatedAt": "2020-10-01T12:43:40.085Z",
  "devdoc": {
    "kind": "dev",
    "methods": {
      "approve(address,uint256)": {
        "details": "See {IERC721-approve}."
      },
      "balanceOf(address)": {
        "details": "See {IERC721-balanceOf}."
      },
      "baseURI()": {
        "details": "Returns the base URI set via {_setBaseURI}. This will be automatically added as a prefix in {tokenURI} to each token's URI, or to the token ID if no specific URI is set for that token ID."
      },
      "getApproved(uint256)": {
        "details": "See {IERC721-getApproved}."
      },
      "isApprovedForAll(address,address)": {
        "details": "See {IERC721-isApprovedForAll}."
      },
      "name()": {
        "details": "See {IERC721Metadata-name}."
      },
      "ownerOf(uint256)": {
        "details": "See {IERC721-ownerOf}."
      },
      "safeTransferFrom(address,address,uint256)": {
        "details": "See {IERC721-safeTransferFrom}."
      },
      "safeTransferFrom(address,address,uint256,bytes)": {
        "details": "See {IERC721-safeTransferFrom}."
      },
      "setApprovalForAll(address,bool)": {
        "details": "See {IERC721-setApprovalForAll}."
      },
      "supportsInterface(bytes4)": {
        "details": "See {IERC165-supportsInterface}. Time complexity O(1), guaranteed to always use less than 30 000 gas."
      },
      "symbol()": {
        "details": "See {IERC721Metadata-symbol}."
      },
      "tokenByIndex(uint256)": {
        "details": "See {IERC721Enumerable-tokenByIndex}."
      },
      "tokenOfOwnerByIndex(address,uint256)": {
        "details": "See {IERC721Enumerable-tokenOfOwnerByIndex}."
      },
      "tokenURI(uint256)": {
        "details": "See {IERC721Metadata-tokenURI}."
      },
      "totalSupply()": {
        "details": "See {IERC721Enumerable-totalSupply}."
      },
      "transferFrom(address,address,uint256)": {
        "details": "See {IERC721-transferFrom}."
      }
    },
    "version": 1
  },
  "userdoc": {
    "kind": "user",
    "methods": {},
    "version": 1
  }
}