{
  "contractName": "Payments",
  "abi": [
    {
      "inputs": [
        {
          "internalType": "address",
          "name": "ipEntityContractAddress",
          "type": "address"
        },
        {
          "internalType": "bytes",
          "name": "mcoContractId",
          "type": "bytes"
        }
      ],
      "stateMutability": "nonpayable",
      "type": "constructor"
    },
    {
      "inputs": [
        {
          "internalType": "uint256",
          "name": "value",
          "type": "uint256"
        }
      ],
      "name": "pay_to_DigitalSale",
      "outputs": [],
      "stateMutability": "payable",
      "type": "function"
    },
    {
      "inputs": [
        {
          "internalType": "uint256",
          "name": "value",
          "type": "uint256"
        }
      ],
      "name": "pay_to_Publisher",
      "outputs": [],
      "stateMutability": "payable",
      "type": "function"
    },
    {
      "inputs": [
        {
          "internalType": "uint256",
          "name": "value",
          "type": "uint256"
        }
      ],
      "name": "pay_to_SongWriter",
      "outputs": [],
      "stateMutability": "payable",
      "type": "function"
    },
    {
      "inputs": [
        {
          "internalType": "uint256",
          "name": "value",
          "type": "uint256"
        }
      ],
      "name": "pay_to_Musicians",
      "outputs": [],
      "stateMutability": "payable",
      "type": "function"
    },
    {
      "inputs": [
        {
          "internalType": "uint256",
          "name": "value",
          "type": "uint256"
        }
      ],
      "name": "pay_to_RecordLabel",
      "outputs": [],
      "stateMutability": "payable",
      "type": "function"
    },
    {
      "inputs": [
        {
          "internalType": "uint256",
          "name": "value",
          "type": "uint256"
        }
      ],
      "name": "pay_to_ArtistBand",
      "outputs": [],
      "stateMutability": "payable",
      "type": "function"
    },
    {
      "inputs": [],
      "name": "pay_to_DigitalSale_from_Consumer",
      "outputs": [],
      "stateMutability": "payable",
      "type": "function"
    },
    {
      "inputs": [],
      "name": "pay_to_Publisher_from_RecordLabel",
      "outputs": [],
      "stateMutability": "payable",
      "type": "function"
    },
    {
      "inputs": [],
      "name": "pay_to_SongWriter_from_Publisher",
      "outputs": [],
      "stateMutability": "payable",
      "type": "function"
    }
  ],
  "bytecode": "0x608060405234801561001057600080fd5b50604051610ae7380380610ae78339818101604052604081101561003357600080fd5b81019080805190602001909291908051604051939291908464010000000082111561005d57600080fd5b8382019150602082018581111561007357600080fd5b825186600182028301116401000000008211171561009057600080fd5b8083526020830192505050908051906020019080838360005b838110156100c45780820151818401526020810190506100a9565b50505050905090810190601f1680156100f15780820380516001836020036101000a031916815260200191505b50604052505050816000806101000a81548173ffffffffffffffffffffffffffffffffffffffff021916908373ffffffffffffffffffffffffffffffffffffffff160217905550806001908051906020019061014e929190610156565b5050506101fb565b828054600181600116156101000203166002900490600052602060002090601f016020900481019282601f1061019757805160ff19168380011785556101c5565b828001600101855582156101c5579182015b828111156101c45782518255916020019190600101906101a9565b5b5090506101d291906101d6565b5090565b6101f891905b808211156101f45760008160009055506001016101dc565b5090565b90565b6108dd8061020a6000396000f3fe6080604052600436106100865760003560e01c80638668a972116100595780638668a97214610143578063d2f826b814610171578063df316f641461017b578063dff99f03146101a9578063f9f61cf5146101b357610086565b80630f95a40c1461008b5780633281eed0146100b957806332c28a7a146100e75780635ada1f8414610115575b600080fd5b6100b7600480360360208110156100a157600080fd5b81019080803590602001909291905050506101bd565b005b6100e5600480360360208110156100cf57600080fd5b810190808035906020019092919050505061022f565b005b610113600480360360208110156100fd57600080fd5b8101908080359060200190929190505050610293565b005b6101416004803603602081101561012b57600080fd5b81019080803590602001909291905050506102f7565b005b61016f6004803603602081101561015957600080fd5b810190808035906020019092919050505061035b565b005b6101796103bf565b005b6101a76004803603602081101561019157600080fd5b8101908080359060200190929190505050610417565b005b6101b1610489565b005b6101bb6104e1565b005b6000731a29170a7cb0b08d6632092832ed97e7891d3250905060006101e1836104ed565b90508173ffffffffffffffffffffffffffffffffffffffff166108fc829081150290604051600060405180830381858888f19350505050158015610229573d6000803e3d6000fd5b50505050565b600073cebc5e7e4032222ab55e0547d8c4bb9b36ea3bc490508073ffffffffffffffffffffffffffffffffffffffff166108fc839081150290604051600060405180830381858888f1935050505015801561028e573d6000803e3d6000fd5b505050565b6000739a2388c4b7309740fb95a8e92175b83a0b52400290508073ffffffffffffffffffffffffffffffffffffffff166108fc839081150290604051600060405180830381858888f193505050501580156102f2573d6000803e3d6000fd5b505050565b600073e00a3cae523ca2203dac42d66ffdf115e67f2ba290508073ffffffffffffffffffffffffffffffffffffffff166108fc839081150290604051600060405180830381858888f19350505050158015610356573d6000803e3d6000fd5b505050565b60007332dc7df8a7c0d2f3b9a604ca84af5fb237ade77690508073ffffffffffffffffffffffffffffffffffffffff166108fc839081150290604051600060405180830381858888f193505050501580156103ba573d6000803e3d6000fd5b505050565b73cebc5e7e4032222ab55e0547d8c4bb9b36ea3bc473ffffffffffffffffffffffffffffffffffffffff163373ffffffffffffffffffffffffffffffffffffffff161461040b57600080fd5b610415600261035b565b565b600073485961f1a71759f0bc037141a9b31b471061bd2d9050600061043b83610546565b90508173ffffffffffffffffffffffffffffffffffffffff166108fc829081150290604051600060405180830381858888f19350505050158015610483573d6000803e3d6000fd5b50505050565b73485961f1a71759f0bc037141a9b31b471061bd2d73ffffffffffffffffffffffffffffffffffffffff163373ffffffffffffffffffffffffffffffffffffffff16146104d557600080fd5b6104df600961022f565b565b6104eb60016101bd565b565b600080829050600061051c606461050e6032876105e690919063ffffffff16565b61066c90919063ffffffff16565b905061052781610417565b61053a81836106b690919063ffffffff16565b91508192505050919050565b600080829050600061057560646105676001876105e690919063ffffffff16565b61066c90919063ffffffff16565b905061058081610293565b61059381836106b690919063ffffffff16565b91506105bc60646105ae6032876105e690919063ffffffff16565b61066c90919063ffffffff16565b90506105c7816102f7565b6105da81836106b690919063ffffffff16565b91508192505050919050565b6000808314156105f95760009050610666565b600082840290508284828161060a57fe5b0414610661576040517f08c379a00000000000000000000000000000000000000000000000000000000081526004018080602001828103825260218152602001806108876021913960400191505060405180910390fd5b809150505b92915050565b60006106ae83836040518060400160405280601a81526020017f536166654d6174683a206469766973696f6e206279207a65726f000000000000815250610700565b905092915050565b60006106f883836040518060400160405280601e81526020017f536166654d6174683a207375627472616374696f6e206f766572666c6f7700008152506107c6565b905092915050565b600080831182906107ac576040517f08c379a00000000000000000000000000000000000000000000000000000000081526004018080602001828103825283818151815260200191508051906020019080838360005b83811015610771578082015181840152602081019050610756565b50505050905090810190601f16801561079e5780820380516001836020036101000a031916815260200191505b509250505060405180910390fd5b5060008385816107b857fe5b049050809150509392505050565b6000838311158290610873576040517f08c379a00000000000000000000000000000000000000000000000000000000081526004018080602001828103825283818151815260200191508051906020019080838360005b8381101561083857808201518184015260208101905061081d565b50505050905090810190601f1680156108655780820380516001836020036101000a031916815260200191505b509250505060405180910390fd5b506000838503905080915050939250505056fe536166654d6174683a206d756c7469706c69636174696f6e206f766572666c6f77a26469706673582212205681b6c7bbab198ffaba66fec9a7ff43f419d7557840a2f752a1b59c3d84691e64736f6c634300060b0033",
  "immutableReferences": {},
  "source": "// SPDX-License-Identifier: MIT\npragma solidity ^0.6.0;\n\nimport \"@openzeppelin/contracts/math/SafeMath.sol\";\n\ncontract Payments {\n    using SafeMath for uint256;\n\n    // IPEntity smart contract address on chain\n    address private _ipEntityContractAddress;\n\n    // MCO contract unique identifier\n    bytes private _contractId;\n\n    constructor(address ipEntityContractAddress, bytes memory mcoContractId)\n        public\n    {\n        _ipEntityContractAddress = ipEntityContractAddress;\n        _contractId = mcoContractId;\n    }\n\n    function pay_to_DigitalSale(uint256 value) public payable {\n\n            address payable beneficiary\n         = 0x1a29170A7CB0b08d6632092832ed97E7891d3250;\n        uint256 final_value = _income_percentage_DigitalSale(value);\n        beneficiary.transfer(final_value);\n    }\n\n    function pay_to_Publisher(uint256 value) public payable {\n\n            address payable beneficiary\n         = 0xCeBC5e7e4032222Ab55E0547d8c4bb9b36EA3bC4;\n        beneficiary.transfer(value);\n    }\n\n    function pay_to_SongWriter(uint256 value) public payable {\n\n            address payable beneficiary\n         = 0x32dc7df8a7C0D2F3B9a604ca84aF5fb237AdE776;\n        beneficiary.transfer(value);\n    }\n\n    function pay_to_Musicians(uint256 value) public payable {\n\n            address payable beneficiary\n         = 0x9a2388c4b7309740fb95A8E92175b83a0b524002;\n        beneficiary.transfer(value);\n    }\n\n    function pay_to_RecordLabel(uint256 value) public payable {\n\n            address payable beneficiary\n         = 0x485961F1a71759f0Bc037141a9b31b471061bd2D;\n        uint256 final_value = _income_percentage_RecordLabel(value);\n        beneficiary.transfer(final_value);\n    }\n\n    function pay_to_ArtistBand(uint256 value) public payable {\n\n            address payable beneficiary\n         = 0xe00a3cAe523ca2203Dac42D66ffDF115E67f2bA2;\n        beneficiary.transfer(value);\n    }\n\n    function _income_percentage_DigitalSale(uint256 value)\n        private\n        returns (uint256)\n    {\n        uint256 final_value = value;\n        uint256 amount;\n\n        amount = value.mul(50).div(100);\n        pay_to_RecordLabel(amount);\n        final_value = final_value.sub(amount);\n\n        return final_value;\n    }\n\n    function _income_percentage_RecordLabel(uint256 value)\n        private\n        returns (uint256)\n    {\n        uint256 final_value = value;\n        uint256 amount;\n\n        amount = value.mul(1).div(100);\n        pay_to_Musicians(amount);\n        final_value = final_value.sub(amount);\n\n        amount = value.mul(50).div(100);\n        pay_to_ArtistBand(amount);\n        final_value = final_value.sub(amount);\n\n        return final_value;\n    }\n\n    function pay_to_DigitalSale_from_Consumer() public payable {\n        pay_to_DigitalSale(1);\n    }\n\n    function pay_to_Publisher_from_RecordLabel() public payable {\n        require(msg.sender == 0x485961F1a71759f0Bc037141a9b31b471061bd2D);\n        pay_to_Publisher(9);\n    }\n\n    function pay_to_SongWriter_from_Publisher() public payable {\n        require(msg.sender == 0xCeBC5e7e4032222Ab55E0547d8c4bb9b36EA3bC4);\n        pay_to_SongWriter(2);\n    }\n}\n",
  "sourcePath": "/home/miker/workspace/mpeg/mpeg21mco2sc/solidity/contracts/PaymentsCaseFour.sol",
  "compiler": {
    "name": "solc",
    "version": "0.6.11+commit.5ef660b1.Emscripten.clang"
  },
  "schemaVersion": "3.2.2",
  "updatedAt": "2020-10-01T12:45:58.997Z",
  "devdoc": {
    "kind": "dev",
    "methods": {},
    "version": 1
  },
  "userdoc": {
    "kind": "user",
    "methods": {},
    "version": 1
  }
}