{
  "contractName": "Payments",
  "abi": [
    {
      "inputs": [
        {
          "internalType": "address",
          "name": "ipEntityContractAddress",
          "type": "address"
        },
        {
          "internalType": "bytes",
          "name": "mcoContractId",
          "type": "bytes"
        }
      ],
      "stateMutability": "nonpayable",
      "type": "constructor"
    },
    {
      "inputs": [
        {
          "internalType": "uint256",
          "name": "value",
          "type": "uint256"
        }
      ],
      "name": "pay_to_StreamingService",
      "outputs": [],
      "stateMutability": "payable",
      "type": "function"
    },
    {
      "inputs": [
        {
          "internalType": "uint256",
          "name": "value",
          "type": "uint256"
        }
      ],
      "name": "pay_to_Publisher",
      "outputs": [],
      "stateMutability": "payable",
      "type": "function"
    },
    {
      "inputs": [
        {
          "internalType": "uint256",
          "name": "value",
          "type": "uint256"
        }
      ],
      "name": "pay_to_PerformingRighthsOrganisation",
      "outputs": [],
      "stateMutability": "payable",
      "type": "function"
    },
    {
      "inputs": [
        {
          "internalType": "uint256",
          "name": "value",
          "type": "uint256"
        }
      ],
      "name": "pay_to_RecordLabel",
      "outputs": [],
      "stateMutability": "payable",
      "type": "function"
    },
    {
      "inputs": [
        {
          "internalType": "uint256",
          "name": "value",
          "type": "uint256"
        }
      ],
      "name": "pay_to_Author",
      "outputs": [],
      "stateMutability": "payable",
      "type": "function"
    }
  ],
  "bytecode": "0x608060405234801561001057600080fd5b506040516109863803806109868339818101604052604081101561003357600080fd5b81019080805190602001909291908051604051939291908464010000000082111561005d57600080fd5b8382019150602082018581111561007357600080fd5b825186600182028301116401000000008211171561009057600080fd5b8083526020830192505050908051906020019080838360005b838110156100c45780820151818401526020810190506100a9565b50505050905090810190601f1680156100f15780820380516001836020036101000a031916815260200191505b50604052505050816000806101000a81548173ffffffffffffffffffffffffffffffffffffffff021916908373ffffffffffffffffffffffffffffffffffffffff160217905550806001908051906020019061014e929190610156565b5050506101fb565b828054600181600116156101000203166002900490600052602060002090601f016020900481019282601f1061019757805160ff19168380011785556101c5565b828001600101855582156101c5579182015b828111156101c45782518255916020019190600101906101a9565b5b5090506101d291906101d6565b5090565b6101f891905b808211156101f45760008160009055506001016101dc565b5090565b90565b61077c8061020a6000396000f3fe60806040526004361061004a5760003560e01c80631866f7521461004f5780633281eed01461007d5780638832bf3c146100ab5780638b9e3cd4146100d9578063df316f6414610107575b600080fd5b61007b6004803603602081101561006557600080fd5b8101908080359060200190929190505050610135565b005b6100a96004803603602081101561009357600080fd5b81019080803590602001909291905050506101a7565b005b6100d7600480360360208110156100c157600080fd5b810190808035906020019092919050505061020b565b005b610105600480360360208110156100ef57600080fd5b810190808035906020019092919050505061026f565b005b6101336004803603602081101561011d57600080fd5b81019080803590602001909291905050506102d3565b005b6000731a29170a7cb0b08d6632092832ed97e7891d32509050600061015983610345565b90508173ffffffffffffffffffffffffffffffffffffffff166108fc829081150290604051600060405180830381858888f193505050501580156101a1573d6000803e3d6000fd5b50505050565b600073cebc5e7e4032222ab55e0547d8c4bb9b36ea3bc490508073ffffffffffffffffffffffffffffffffffffffff166108fc839081150290604051600060405180830381858888f19350505050158015610206573d6000803e3d6000fd5b505050565b600073485961f1a71759f0bc037141a9b31b471061bd2d90508073ffffffffffffffffffffffffffffffffffffffff166108fc839081150290604051600060405180830381858888f1935050505015801561026a573d6000803e3d6000fd5b505050565b600073e00a3cae523ca2203dac42d66ffdf115e67f2ba290508073ffffffffffffffffffffffffffffffffffffffff166108fc839081150290604051600060405180830381858888f193505050501580156102ce573d6000803e3d6000fd5b505050565b60007332dc7df8a7c0d2f3b9a604ca84af5fb237ade776905060006102f78361042c565b90508173ffffffffffffffffffffffffffffffffffffffff166108fc829081150290604051600060405180830381858888f1935050505015801561033f573d6000803e3d6000fd5b50505050565b60008082905060006103746064610366600a8761048590919063ffffffff16565b61050b90919063ffffffff16565b905061037f816101a7565b610392818361055590919063ffffffff16565b91506103bb60646103ad60018761048590919063ffffffff16565b61050b90919063ffffffff16565b90506103c68161020b565b6103d9818361055590919063ffffffff16565b915061040260646103f460328761048590919063ffffffff16565b61050b90919063ffffffff16565b905061040d816102d3565b610420818361055590919063ffffffff16565b91508192505050919050565b600080829050600061045b606461044d60328761048590919063ffffffff16565b61050b90919063ffffffff16565b90506104668161026f565b610479818361055590919063ffffffff16565b91508192505050919050565b6000808314156104985760009050610505565b60008284029050828482816104a957fe5b0414610500576040517f08c379a00000000000000000000000000000000000000000000000000000000081526004018080602001828103825260218152602001806107266021913960400191505060405180910390fd5b809150505b92915050565b600061054d83836040518060400160405280601a81526020017f536166654d6174683a206469766973696f6e206279207a65726f00000000000081525061059f565b905092915050565b600061059783836040518060400160405280601e81526020017f536166654d6174683a207375627472616374696f6e206f766572666c6f770000815250610665565b905092915050565b6000808311829061064b576040517f08c379a00000000000000000000000000000000000000000000000000000000081526004018080602001828103825283818151815260200191508051906020019080838360005b838110156106105780820151818401526020810190506105f5565b50505050905090810190601f16801561063d5780820380516001836020036101000a031916815260200191505b509250505060405180910390fd5b50600083858161065757fe5b049050809150509392505050565b6000838311158290610712576040517f08c379a00000000000000000000000000000000000000000000000000000000081526004018080602001828103825283818151815260200191508051906020019080838360005b838110156106d75780820151818401526020810190506106bc565b50505050905090810190601f1680156107045780820380516001836020036101000a031916815260200191505b509250505060405180910390fd5b506000838503905080915050939250505056fe536166654d6174683a206d756c7469706c69636174696f6e206f766572666c6f77a26469706673582212206ea9e061cee6a9e66705ab122a792ede99aaae3f39932c125437990284868f6664736f6c634300060b0033",
  "immutableReferences": {},
  "source": "// SPDX-License-Identifier: MIT\npragma solidity ^0.6.0;\n\nimport \"@openzeppelin/contracts/math/SafeMath.sol\";\n\ncontract Payments {\n    using SafeMath for uint256;\n\n    // IPEntity smart contract address on chain\n    address private _ipEntityContractAddress;\n\n    // MCO contract unique identifier\n    bytes private _contractId;\n\n    constructor(address ipEntityContractAddress, bytes memory mcoContractId)\n        public\n    {\n        _ipEntityContractAddress = ipEntityContractAddress;\n        _contractId = mcoContractId;\n    }\n\n    function pay_to_StreamingService(uint256 value) public payable {\n\n            address payable beneficiary\n         = 0x1a29170A7CB0b08d6632092832ed97E7891d3250;\n        uint256 final_value = _income_percentage_StreamingService(value);\n        beneficiary.transfer(final_value);\n    }\n\n    function pay_to_Publisher(uint256 value) public payable {\n\n            address payable beneficiary\n         = 0xCeBC5e7e4032222Ab55E0547d8c4bb9b36EA3bC4;\n        beneficiary.transfer(value);\n    }\n\n    function pay_to_PerformingRighthsOrganisation(uint256 value)\n        public\n        payable\n    {\n\n            address payable beneficiary\n         = 0x485961F1a71759f0Bc037141a9b31b471061bd2D;\n        beneficiary.transfer(value);\n    }\n\n    function pay_to_RecordLabel(uint256 value) public payable {\n\n            address payable beneficiary\n         = 0x32dc7df8a7C0D2F3B9a604ca84aF5fb237AdE776;\n        uint256 final_value = _income_percentage_RecordLabel(value);\n        beneficiary.transfer(final_value);\n    }\n\n    function pay_to_Author(uint256 value) public payable {\n\n            address payable beneficiary\n         = 0xe00a3cAe523ca2203Dac42D66ffDF115E67f2bA2;\n        beneficiary.transfer(value);\n    }\n\n    function _income_percentage_StreamingService(uint256 value)\n        private\n        returns (uint256)\n    {\n        uint256 final_value = value;\n        uint256 amount;\n\n        amount = value.mul(10).div(100);\n        pay_to_Publisher(amount);\n        final_value = final_value.sub(amount);\n\n        amount = value.mul(1).div(100);\n        pay_to_PerformingRighthsOrganisation(amount);\n        final_value = final_value.sub(amount);\n\n        amount = value.mul(50).div(100);\n        pay_to_RecordLabel(amount);\n        final_value = final_value.sub(amount);\n\n        return final_value;\n    }\n\n    function _income_percentage_RecordLabel(uint256 value)\n        private\n        returns (uint256)\n    {\n        uint256 final_value = value;\n        uint256 amount;\n\n        amount = value.mul(50).div(100);\n        pay_to_Author(amount);\n        final_value = final_value.sub(amount);\n\n        return final_value;\n    }\n}\n",
  "sourcePath": "/home/miker/workspace/mpeg/mpeg21mco2sc/solidity/contracts/PaymentsCaseOne.sol",
  "compiler": {
    "name": "solc",
    "version": "0.6.11+commit.5ef660b1.Emscripten.clang"
  },
  "schemaVersion": "3.2.2",
  "updatedAt": "2020-09-30T08:54:54.872Z",
  "devdoc": {
    "kind": "dev",
    "methods": {},
    "version": 1
  },
  "userdoc": {
    "kind": "user",
    "methods": {},
    "version": 1
  }
}